:200000000C94A3140C94CE140C94CE140C94CE140C94CE140C94CE140C94CE140C94CE14FB
:200020000C94CE140C94CE140C94CE140C94CE140C94CE140C9412500C94CE140C94CE1430
:200040000C94CE140C944B4F0C941AC30C94CE140C949C4D0C94C64D0C94CE140C94CE14A5
:200060000C94CE140C94CE140C94CE140C94CE140C94CE140C94CE140C94CE140C94CE1470
:200080000C94CE140C94CE140C94CE14AF9BDD9B0B9CFD9CD6ABD6ABD6ABD6ABD6ABD6ABD2
:2000A000D6ABD6ABD6AB3A9C799CBA9CD6ABD6ABD6ABD6ABD6ABD6ABD6ABD6ABD6ABD6AB72
:2000C000D6AB849FE59F46A0A7A008A169A1CAA14EA2D7A6D2A24AA3C2A337A4ABA41FA58C
:2000E00093A5FFA56BA6D6ABD6ABD6ABD6ABD6AB529EBA9ED6AB2EA7A2A711A887A8AFA868
:2001000005A942A97FA9DEA93FAA9EAAFDAA29ABD7A8D6ABD6ABD6ABD6ABD6ABD6ABD6ABE5
:20012000D6ABD6ABD6ABD6ABD6ABE69D1B9ED6ABD6ABD6ABD6ABD6ABD6ABD6ABD6ABD6AB75
:20014000D6AB799ED6ABD6ABD6AB62AB9FABD6ABD6ABD6ABD6ABA19BD6ABD6AB409D799DF8
:20016000C69D1F9F084AD73B3BCE016E84BCBFFDC12F3D6C74319ABD56833DDA3D00C77F7E
:2001800011BED9E4BB4C3E916BAAAABE000000803F05A84CCDB2D44EB93836A9020C50B940
:2001A000918688083CA6AAAA2ABE000000803F000001000F0015000E001200FFFF1600174B
:2001C000000E001300FFFF030002001A001400FFFF1B00FFFF0D000C000400010000000E8A
:2001E00000070006001F00536574204D6963726F7374657070696E670048656174696E6763
:20020000204265640048656174696E67204578747275646572004649524D574152455F4E76
:20022000414D453A52657065746965725F302E3931204649524D574152455F55524C3A68D9
:20024000747470733A2F2F6769746875622E636F6D2F72657065746965722F52657065748D
:200260006965722D4669726D776172652F2050524F544F434F4C5F56455253494F4E3A3123
:200280002E30204D414348494E455F545950453A4D656E64656C2045585452554445525FC9
:2002A000434F554E543A312052455045544945525F50524F544F434F4C3A3200446562750D
:2002C000673A006F6B000D0A004E414E00494E46004572726F723A00496E666F3A00576110
:2002E000726E696E673A00526573656E643A004563686F3A006F6B200057726F6E672063C8
:200300006865636B73756D004D697373696E6720636865636B73756D00466F726D61742017
:200320006572726F7200446F6E65207072696E74696E672066696C650020580020590020B1
:200340005A00204500204600205300205000204900204A0020520053442072656164206578
:2003600072726F72004572726F723A6578706563746564206C696E65200020676F742000B0
:20038000736B69702000424C4B2000737461727400506F77657255700045787465726E61B6
:2003A0006C2052657365740042726F776E206F7574205265736574005761746368646F67DA
:2003C00020526573657400536F66747761726520526573657400556E6B6E6F776E20636FAA
:2003E0006D6D616E643A00467265652052414D3A00583A0020583A0020593A00205A3A004F
:2004000020453A00543A0020423A0020403A002054002040002042403A0020524157003A85
:20042000002F00202F0053706565644D756C7469706C793A00466C6F774D756C7469706C34
:20044000793A0046616E73706565643A005072696E7465642066696C616D656E743A0050B9
:2004600072696E74696E672074696D653A006D20002064617973200020686F757273200089
:20048000206D696E00496E76616C696420617263002C002000593A005A3A0045303A004574
:2004A000313A004D53312C4D53322050696E7300536574206F7574707574200020746F2008
:2004C000004820004C2000785F6D696E3A00785F6D61783A00795F6D696E3A00795F6D61A0
:2004E000783A007A5F6D696E3A007A5F6D61783A004A65726B3A00205A4A65726B3A002074
:200500006C696E6561722073746570733A00207175616472617469632073746570733A0070
:200520002C2073706565643D00454550524F4D2075706461746564006C696E656172204C6B
:200540003A0020717561647261746963204B3A0054617267657445787472005461726765E1
:20056000744265643A00504944204175746F74756E652073746172740020626961733A2009
:200580000020643A2000206D696E3A2000206D61783A2000204B753A20002054753A200082
:2005A00020436C61737369632050494400204B703A2000204B693A2000204B643A20005080
:2005C0004944204175746F74756E65206661696C6564212054656D706572617475726520A5
:2005E000746F206869676800504944204175746F74756E65206661696C6564212074696DF6
:20060000656F757400504944204175746F74756E652066696E6973686564202120506C61E3
:20062000636520746865204B702C204B6920616E64204B6420636F6E7374616E747320690E
:200640006E2074686520436F6E66696775726174696F6E2E68206F7220454550524F4D00D4
:200660004D54454D503A006865617465642062656400657874727564657220003A20746541
:200680006D702073656E736F7220646566656374003A20776F726B696E67005072696E74D0
:2006A00065722073657420696E746F206472792072756E206D6F646520756E74696C207296
:2006C00065737461727421004175746F6C6576656C696E6720656E61626C65640041757462
:2006E0006F6C6576656C696E672064697361626C6564005A2D70726F6265206661696C651D
:2007000064005A2D70726F6265206D61783A005072696E746572206865696768743A007708
:20072000616974004731205A3320463630300A473120583130205931302046363030300AEF
:200740004731205A302E3220463630300A004731205A3320463630300A473120583139305C
:20076000205931302046363030300A4731205A302E3220463630300A004731205A33204656
:200780003630300A4731205831393020593139302046363030300A4731205A302E322046FE
:2007A0003630300A004731205A3320463630300A473120583130205931393020463630300E
:2007C000300A4731205A302E3220463630300A00436F6E66696775726174696F6E207374F8
:2007E0006F72656420746F20454550524F4D2E00436F6E66696775726174696F6E206C6FE3
:20080000616465642066726F6D20454550524F4D2E00436F6E66696775726174696F6E20E8
:20082000726573657420746F2064656661756C74732E0050726F746F636F6C2076657273BA
:20084000696F6E206368616E6765642C20757067726164696E6700457874722E00455052A3
:200860003A3020004550523A3120004550523A3220004550523A33200042617564726174D2
:20088000650046696C616D656E74207072696E746564205B6D5D005072696E746572206103
:2008A0006374697665205B735D004D61782E20696E6163746976652074696D65205B6D73E1
:2008C0002C303D6F66665D0053746F70207374657070657220616674657220696E616374BD
:2008E0006976697479205B6D732C303D6F66665D005820686F6D6520706F73205B6D6D5DF2
:20090000005920686F6D6520706F73205B6D6D5D005A20686F6D6520706F73205B6D6D5D4A
:200920000058206D6178206C656E677468205B6D6D5D0059206D6178206C656E6774682024
:200940005B6D6D5D005A206D6178206C656E677468205B6D6D5D0058206261636B6C6173A8
:2009600068205B6D6D5D0059206261636B6C617368205B6D6D5D005A206261636B6C6173AE
:2009800068205B6D6D5D004D61782E206A65726B205B6D6D2F735D004D61782E205A2D6A64
:2009A00065726B205B6D6D2F735D00582D6178697320737465707320706572206D6D00595E
:2009C0002D6178697320737465707320706572206D6D005A2D6178697320737465707320DA
:2009E000706572206D6D00582D61786973206D61782E206665656472617465205B6D6D2F04
:200A0000735D00592D61786973206D61782E206665656472617465205B6D6D2F735D005A29
:200A20002D61786973206D61782E206665656472617465205B6D6D2F735D00582D617869C5
:200A40007320686F6D696E67206665656472617465205B6D6D2F735D00592D617869732072
:200A6000686F6D696E67206665656472617465205B6D6D2F735D005A2D6178697320686F0D
:200A80006D696E67206665656472617465205B6D6D2F735D00582D61786973206163636511
:200AA0006C65726174696F6E205B6D6D2F735E325D00592D6178697320616363656C6572CA
:200AC0006174696F6E205B6D6D2F735E325D005A2D6178697320616363656C6572617469AE
:200AE0006F6E205B6D6D2F735E325D00582D617869732074726176656C20616363656C65D0
:200B0000726174696F6E205B6D6D2F735E325D00592D617869732074726176656C20616397
:200B200063656C65726174696F6E205B6D6D2F735E325D005A2D617869732074726176652D
:200B40006C20616363656C65726174696F6E205B6D6D2F735E325D004F5053206F70657273
:200B60006174696F6E206D6F6465205B303D4F66662C313D436C61737369632C323D4661F4
:200B800073745D004F5053206D6F76652061667465722078252072657472616374205B25A4
:200BA0005D004F5053206D696E2E2064697374616E636520666F722066696C2E207265748E
:200BC00072616374696F6E205B6D6D5D004F50532072657472616374696F6E206C656E6760
:200BE0007468205B6D6D5D004F50532072657472616374696F6E206261636B6C61736820A1
:200C00005B6D6D5D004265642048656174204D616E61676572205B302D335D004265642027
:200C2000504944206472697665206D61780042656420504944206472697665206D696E0091
:200C40004265642050494420502D6761696E004265642050494420492D6761696E0042656C
:200C6000642050494420442D6761696E0042656420504944206D61782076616C7565205BBD
:200C8000302D3235355D00737465707320706572206D6D006D61782E2066656564726174FF
:200CA00065205B6D6D2F735D007374617274206665656472617465205B6D6D2F735D006138
:200CC0006363656C65726174696F6E205B6D6D2F735E325D0068656174206D616E6167657C
:200CE00072205B302D335D00504944206472697665206D6178005049442064726976652066
:200D00006D696E0050494420502D6761696E2F646561642D74696D650050494420492D6703
:200D200061696E0050494420442D6761696E00504944206D61782076616C7565205B302D16
:200D40003235355D00582D6F6666736574205B73746570735D00592D6F6666736574205BFF
:200D600073746570735D0074656D702E2073746162696C697A652074696D65205B735D0002
:200D800074656D702E20666F722072657472616374696F6E207768656E2068656174696E42
:200DA00067205B435D0064697374616E636520746F2072657472616374207768656E2068F4
:200DC000656174696E67205B6D6D5D00657874727564657220636F6F6C6572207370656505
:200DE00064205B302D3235355D00616476616E6365204B205B303D6F66665D006164766165
:200E00006E6365204C205B303D6F66665D00534420436172642072656D6F766564005344D6
:200E2000204361726420696E73657274656400534420696E6974206661696C006572726FBB
:200E4000722077726974696E6720746F2066696C6500426567696E2066696C65206C69732C
:200E60007400456E642066696C65206C6973740046696C65206F70656E65643A002053691A
:200E80007A653A0046696C652073656C65637465640066696C652E6F70656E206661696C14
:200EA0006564005344207072696E74696E67206279746520004E6F74205344207072696E92
:200EC00074696E67006F70656E206661696C65642C2046696C653A200057726974696E671F
:200EE00020746F2066696C653A2000446F6E6520736176696E672066696C652E0046696C9E
:200F0000652064656C657465640044656C6574696F6E206661696C65640044697265637461
:200F20006F72792063726561746564004372656174696F6E206661696C6564005344206589
:200F400072726F72436F64653A000701061C151C143A21002243141F1F730FE30F3710A734
:200F600010F710DF1100006312EB12F7134714C31400000000A00F5C00600969001009794D
:200F800000C0088C007008A2002008BD00D007DE008007050130073401E0066D019006B2B4
:200FA0000140060702F0056D02A005E80250057B0300052B04B004F8046004EB06C00335EA
:200FC0000920037F0B8002650DE001B00E40011D0FF000480FC8006C0FA000ED0F60FFFED8
:200FE0000F48FE0400801AD8009808AC012007800250065403C80528045805FC040005D058
:2010000005B004A4066804780728044C08E8032009B003F4097003C80A38039C0BF80270AD
:201020000CB002440D6802180E0802EC0E8801C00F8800F00F00000400001B5400600964EE
:201040000010097400C008840070089C002008B800D007D8008007000130072C01E00668DA
:20106000019006AC0140060002F0056802A005E0025005740300052404B004F0046004DC1D
:20108000051004E406C0030408700330092003780B8002600DE001A80E4001680FA000C08E
:2010A0000F0000E80F60FF0400700DD8004804AC0158038002D8025403800228043802FC87
:2010C000040002D005C801A4069801780770014C08480120091801F409F000C80AC8009C37
:2010E0000BA000700C7000440D3800180E0000EC0EA8FFC00FE8FE380060093B00380940F7
:201100000010094600E8084C00C0085200980859007008620048086C0020087600F807806E
:2011200000D0079100A8079C008007A8005807BB003007D0000807E300E006F800B806100E
:201140000190062D01680650014006720118069001F005C201C805EC01A00528027805677E
:20116000025005B2022805EE0200053E03D8049803B004F20388045E046004BF043804325E
:20118000051004B405E8033A06C003D80698036C077003F8074803980820032E09F802D41E
:2011A00009D0026F0AA8020F0B80029F0B58022B0C3002B30C08022F0DE001980DB801FCE8
:2011C0000D90014C0E68019C0E40011D0FF000480FC8006C0FA000ED0F60FFFE0F48FE3887
:2011E000006009BB00D0076702F005B202C805EE02A0053E03780598035005F20328055E52
:20120000040005BF04D80432058804B40560043A063804D80610046C07E803F807C0039820
:201220000898032E097003D40948036F0A10030F0BE0029F0BA8022B0C6002B30C4002982B
:201240000DF001FC0DA0014C0E70019C0E40011D0FF000480FC8006C0FA000ED0F60FFFE81
:201260000F48FE0000401F450060094F0010095C00C0086B0070087D0020089200D007ACE3
:20128000008007CC003007DE00E006230190065E014006A601F005FF01A0056D025005F3A9
:2012A0000200059603B0045A046004400510044806C0036E077003A8082003EB09D002230A
:2012C0000B8002410C3002390DE001040E9001A20E4001170FF000690FA000A20F5000C652
:2012E0000F0000DD0FB0FFEB0F60FF0400681D4C00500B94005809DC0050082401A8076C52
:20130000012807B401C006FC017006440228068C02F005D402B8051C03880564035805AC09
:20132000033005F40310053C04E8048404C804CC04A804140590045C057004A4055804ECFA
:20134000053804340620047C060804C406F0030C07D8035407C8039C07B003E40798032C87
:2013600008800374087003BC085803040948034C09300394091803DC090803240AF0026CC0
:201380000AE002B40AC802FC0AB002440BA0028C0B8802D40B70021C0C5802640C4002ACDE
:2013A0000C2802F40C10023C0DF001840DD801CC0DB801140E98015C0E7001A40E4801EC32
:2013C0000E1801340FD8007C0F8800C40F0800FC0F000000000000000000000000000000D2
:2013E000000000000000000000000000000000000000000000000004000016D800C006AC89
:201400000178058002C004540348042804E803FC049803D0055003A40618037807D8024C21
:2014200008A80220097002F4093802C80A08029C0BD001700C9001440D5001180EF800EC1B
:201440000E8800C00F00000400401D900060091C01B007A801D00634023806C002C8054C2B
:20146000036805D80318056404D804F00498047C05600408063004940600042007D003ACC5
:2014800007A80338088003C408580350093003DC090803680AE002F40AB802800B88020C07
:2014A0000C6002980C3002240DF801B00DC0013C0E8001C80E3001540FB800B40F2800E088
:2014C0000F00000400081D900058091C01B007A801C80634023006C002C0054C036805D811
:2014E0000318056404D004F00498047C05600408063004940600042007D003AC07A80338AB
:20150000088003C408580350093003DC090803680AD802F40AB002800B88020C0C6002987A
:201520000C3002240DF801B00DC0013C0E8001C80E3001540FB800B40F2800E00F000053AB
:2015400044206572726F72206669786564005344206572726F7220646964206E6F74207298
:2015600065636F766572210053442052656164204572726F720042696E6172793A00436F18
:201580006D6D616E64427566666572000000000000000000000000000000000024F403D9F0
:2015A00050C38EB1C2A23D96828B3582127AE372816CCB66A861015DC758EB546151204EFA
:2015C0001E4B5648C14559431A41013F093D2F3B7139CD374036C93465331432D430A32F42
:2015E000802E6B2D632C672B752A8E29B028DC2710274B268F25D9242B248223E02243229F
:20160000AC211A218D200420801F001F841E0C1E971D261DB81C4E1CE61B821B201BC11A7E
:20162000641A0A1AB2195D190A19B9186A181C18D11788174017FA16B51673163116F1158E
:20164000B31576153A150015C7148F1458142214EE13BA13881356132513F612C71299121D
:201660006C1240121512EB11C1119811701148112111FB10D610B1108D106910461024109E
:201680000210E10FC00FA00F800F610F420F230F060FE80ECB0EAF0E930E770E5C0E410EC8
:2016A000270E0D0EF30DDA0DC10DA80D900D780D600D490D320D1B0D050DEF0CD90CC30C63
:2016C000AE0C990C850C700C5C0C480C350C210C0E0CFB0BE80BD60BC40BB20BA00B8E0BB0
:2016E0007D0B6B0B5A0B4A0B390B290B180B080BF80AE90AD90ACA0ABB0AAC0A9D0A8E0A1E
:20170000800A710A630A550A470A390A2C0A1E0A110A040AF709EA09DD09D009C409B7099E
:20172000AB099F09920987097B096F09630958094C09410936092B09200915090A090009E4
:20174000F508EB08E008D608CC08C208B808AE08A4089A08900887087D0874086B0861086D
:2017600058084F0846083D0834082C0823081A08120809080108F807F007E807E007D80783
:20178000D007C807C007B807B007A807A1070000420FA1071605D0030D038B022E02E80172
:2017A000B2018601630145012C0117010401F40049646C6500486F6D65205A00486F6D65FD
:2017C000205900486F6D65205800537465707065722044697361626C6564004B696C6C6583
:2017E000640055706C6F6164696E672E2E2E005344207072696E742073746F707065642035
:20180000627920757365722E0000002110422063308440A550C660E770088129914AA16BEB
:20182000B18CC1ADD1CEE1EFF13112100273325222B5529442F772D662399318837BB35AC2
:20184000A3BDD39CC3FFF3DEE36224433420040114E664C774A44485546AA54BB528850902
:2018600095EEE5CFF5ACC58DD55336722611163006D776F6669556B4465BB77AA719973842
:2018800087DFF7FEE79DD7BCC7C448E5588668A7784008611802282338CCC9EDD98EE9AFF2
:2018A000F9488969990AA92BB9F55AD44AB77A966A711A500A333A122AFDDBDCCBBFFB9EC2
:2018C000EB799B588B3BBB1AABA66C877CE44CC55C222C033C600C411CAEED8FFDECCDCD02
:2018E000DD2AAD0BBD688D499D977EB66ED55EF44E133E322E511E700E9FFFBEEFDDDFFC42
:20190000CF1BBF3AAF599F788F8891A981CAB1EBA10CD12DC14EF16FE18010A100C230E38C
:20192000200450254046706760B9839893FBA3DAB33DC31CD37FE35EF3B1029012F322D2E1
:20194000323542145277625672EAB5CBA5A89589856EF54FE52CD50DC5E234C324A01481E1
:20196000046674476424540544DBA7FAB79987B8975FE77EF71DC73CD7D326F2369106B061
:201980001657667676154634564CD96DC90EF92FE9C899E9898AB9ABA944586548067827D1
:2019A00068C018E1088238A3287DCB5CDB3FEB1EFBF98BD89BBBAB9ABB754A545A376A16E1
:2019C0007AF10AD01AB32A923A2EFD0FED6CDD4DCDAABD8BADE89DC98D267C076C645C45E1
:2019E0004CA23C832CE01CC10C1FEF3EFF5DCF7CDF9BAFBABFD98FF89F176E367E554E7461
:201A00005E932EB23ED10EF01E7C3C3E5E2B3D3F2F5B5D3B2C2A225C004E6F206572726F44
:201A20007220666F756E642E0043616E2774206F70656E20726F6F74206469726563746F5D
:201A400072792E00496E76616C696420666F726D61742C207265666F726D61742053442E6C
:201A6000004E6F20636172642C2077726F6E6720636869702073656C6563742070696E2C7F
:201A8000206F72205350492070726F626C656D3F0043616E277420616363657373205344F3
:201AA00020636172642E20446F206E6F74207265666F726D61742E000001FF00FF0000014C
:201AC000010000FF00FF0100416374696F6E3A256C61000310270200A41C0310270200A89C
:201AE0001C0100000100AC1C0200000800AE1C03ED030400BE1C03EE030400C61C03EF038C
:201B00000400CE1C03FA030400D61C03FB030400DE1C03FC030400E61C0200000900EE1CC5
:201B20000200000600001D0200000C000C1D5265717565737450617573653A004E6F2053F8
:201B400044204361726400436F6F6C646F776E005072656865617420414253005072656814
:201B600065617420504C41008025000040380000004B00008070000000960000C0DA0000A6
:201B800000E10000002C010008B2010000C2010000F401000084030090D0030000E80300EF
:201BA0000008070020A1070000100E0040420F0060E31600000000000200000900241D36C4
:201BC0001D3D1D441D4B1D4F6E004F666600596573004E6F00030004004E2F4100003A0000
:201BE000206461797320005836445F380042616E6742616E6700536C6F7742616E6700443A
:201C00006561642054696D6500504944005072696E74696E672E2E2E0020646566200000CA
:201C200000003FCDCC4C3D0AD7A33B6F12033A52657065746965722D302E393100334420FA
:201C40005072696E746572005836445F38005836445F385F56312E36005072696E746572A0
:201C60002072656164792E0000401454040E15041C000000040A040000000000001F1F1FA3
:201C80001F1F0000001F1111111F0000040A0A0A0E1F1F0E001C1F11111F0000001F151158
:201CA000151F1F00521D591D601D671D6E1D6E1D751D7C1D831D8A1D911D981D9F1DA61D81
:201CC000AD1DB41DBB1DC21DC91DD01DD71DDE1DE51DEC1DF31DFA1D011E081E0F1E161E18
:201CE0001D1E241E2B1E321E391E401E471E6E1D4E1E551E5C1E631E6A1E711E781E7F1E05
:201D00006E1D861E8D1E941E9B1EA21E6E1D4E1EA91EB01EB71EBE1EC51ECC1ED31EDA1ECB
:201D2000E11E9B1E6E1DE81E751DEF1EF61EFD1E041F0B1F121F0000000400191F000000D2
:201D40000400211F0000000400291F0000000400311F391F0000000000471F0000000000E1
:201D6000581F0000000000661F0000000000771F03E80300007E1F03F5030102891F03F6A7
:201D8000030204951F0354040200A01F03F7030400AF1F03F8030100BC1F03F9030001C7FA
:201DA0001F03F4030102D31F0000000000DC1F0000000000EC1F0000000000FC1F000000F4
:201DC0000000FD1F00000000000620000000000016200000000000262000000000002720FE
:201DE000000000000030200000000000402000000000005020000000000051200000000052
:201E0000005A2000000000006A2000000000007A2000000000007B200000000000842000E5
:201E20000000000094200000000000A4200000000000A5200000000000AE20000000000097
:201E4000BE200000000000CE200000000000CF2003FD030020D820041F040000EA2004482F
:201E6000040000FC20033704000008210347040000142103380400001D2103310400102B68
:201E80002103420400203B21043C0400004B21043D0400005B21033A0400006A2102792183
:201EA0000000802103430400008B2103FE030020922103FF03002099210300040020A021ED
:201EC00002041B0000AC2102EF1A0000B721020B1B0000C32102F61A0000CE2102121B00F5
:201EE00000DA2102FD1A0000E52102191B0000F42102271B0000FD2102201B0000062202B4
:201F000010220000172202E81A00001F2202292200003022023E22000045224C2253225A6C
:201F200022612268226F2276227D2284228B2292229922A022A722AE22436F6E66696775C2
:201F4000726174696F6E0073746F72656420696E20454550524F4D00436F6E666967757247
:201F60006174696F6E006C6F6164656420662E20454550524F4D004261636B2001005072ED
:201F8000696E742066696C65005061757365205072696E740053746F70205072696E740038
:201FA000436F6E74696E7565205072696E7400556E6D6F756E742043617264004D6F756E80
:201FC0007420436172640044656C6574652066696C6500583A257830206D6D004D696E2043
:201FE000656E6473746F703A257378004D617820656E6473746F703A2573580000593A2575
:202000007831206D6D004D696E20656E6473746F703A257379004D617820656E6473746FBE
:20202000703A25735900005A3A257832206D6D004D696E20656E6473746F703A25737A001B
:202040004D617820656E6473746F703A25735A0000583A257830206D6D004D696E20656EA1
:202060006473746F703A257378004D617820656E6473746F703A2573580000593A2578311E
:20208000206D6D004D696E20656E6473746F703A257379004D617820656E6473746F703A3D
:2020A00025735900005A3A257832206D6D004D696E20656E6473746F703A25737A004D6197
:2020C0007820656E6473746F703A25735A0000486F6D6520416C6C005370656564204D75AA
:2020E0006C2E3A256F6D25252500466C6F77204D756C2E203A256F66252525005072656836
:2021000065617420504C4100507265686561742041425300436F6F6C646F776E0053657458
:2021200020746F204F726967696E0044697361626C652073746570706572004265642054BE
:20214000656D703A2025456202430054656D702E20313A202025453002430045787472754C
:202160006465722031204F666600457874722E20706F736974696F6E0003F0030200B52263
:20218000536574204F726967696E00486F6D65205800486F6D65205900486F6D65205A0085
:2021A0005820506F732E2046617374005820506F736974696F6E005920506F732E2046612C
:2021C0007374005920506F736974696F6E005A20506F732E2046617374005A20506F7369AD
:2021E00074696F6E00517569636B2053657474696E677300506F736974696F6E0045787431
:2022000072756465720046616E207370656564000200000700B922534420436172640044FD
:202220006562756767696E67000200000500C722436F6E66696775726174696F6E0002000C
:20224000000800D122E1220000000000F42200000000000323000000000018230000000009
:20226000001C230000000000252300000000002E230000000000372300000000003B2300CE
:20228000000000004C2300000000005D2300000000005E2300000000006223000000000049
:2022A0007023000000000074230000000000852300000000008B2392236E1D9923A023A738
:2022C00023AE23B523BC236E1DC323CA23D123D8236E1DDF23E623ED23F423FB23022409FC
:2022E00024052565632F25456302072565422F25456202005A3A25783220204275663A25DB
:202300006F42004D756C3A20256F6D202020466C6F773A20256F6600256F7300583A257801
:2023200030206D6D00593A257831206D6D005A3A257832206D6D00256F730045313A25657A
:20234000302F25453002437E256F300020423A2565622F25456202437E256F620000256F2D
:2023600073005072696E74696E672074696D65002555740046696C616D656E742070726947
:202380006E74656400255566206D001024000000000019240000000000282404520400000E
:2023A0003924031A0408004624031B0400005424031C0400006224031D0400007024031E11
:2023C0000400007D2403320400008924033304000095240334040000A1240335040000AD96
:2023E0002402B5240000BC2402C9240000D02402D9240000E02402E9240000F024030604E8
:202400000000002503070400000F250222250000453A257833206D6D003120636C69636B6C
:20242000203D2031206D6D0046616E2073706565643A254673252525005475726E204661B7
:202440006E204F6666005365742046616E203235252525005365742046616E20353025254C
:2024600025005365742046616E203735252525005365742046616E2046756C6C00456368B7
:202480006F2020203A25646F00496E666F2020203A256469004572726F7273203A2564655E
:2024A000004472792072756E3A2564640047656E6572616C000200000400292541636365D3
:2024C0006C65726174696F6E000200000900312546656564726174650002000007004325AC
:2024E0004578747275646572000200000F00512553746F726520746F20454550524F4D000A
:202500004C6F616420662E20454550524F4D004C6576656C696E6720617578696C696172EA
:20252000790002000007006F256E1D7D2584258B256E1D92259925A025A725AE25B525BC05
:2025400025C3256E1DCA25D125D825DF25E625ED256E1DF425FB2502260926102617261E34
:202560002625262C2633263A26412648264F266E1D4E1E56265D2664266B26E11E722604E9
:20258000100400007F260290260000972602A5260000AC260408040000B82604090400006F
:2025A000C426040A040000D026040B040000DC26040C040000E826040D040000F426040EB1
:2025C0000400000027040F0400000C27041404000016270415040000202704160400002A81
:2025E00027041104000035270412040000402704130400004B2704290400005827042C044D
:2026000000006527042B0400007027042A0400007A27042E0400008827044D0400009B2795
:20262000044C040000AC27042D040000B8270422040000C5270423040000CF2704240400FC
:2026400000D9270425040000E7270426040000F527042F040000012803B10F00000D28039A
:20266000B20F0000192803B30F0000252803B40F000042617564726174653A256F630053D4
:2026800074657070657220496E61637469766500032004020031284D61782E20496E6163E6
:2026A0007469766500035804020035285072696E7420583A256178005072696E7420593A27
:2026C000256179005072696E74205A3A25617A004D6F76652058203A256158004D6F76655C
:2026E0002059203A256159004D6F7665205A203A25615A004A65726B2020203A25616A00C7
:202700005A2D4A65726B203A25614A004D617820583A256678004D617820593A25667900C4
:202720004D6178205A3A25667A00486F6D6520583A25665800486F6D6520593A256659007C
:20274000486F6D65205A3A25665A0053746570732F4D4D3A255365005374617274204652A2
:202760003A255866004D61782046523A25584600416363656C3A25584100537461622E5485
:20278000696D653A255877005761697420556E6974733A20255855206D6D0057616974202D
:2027A00054656D702E20255854024300436F6E74726F6C3A2558680044542F50494420500B
:2027C0003A2558700050494420493A2558690050494420443A255864004472697665204DA9
:2027E000696E3A25586D004472697665204D61783A25584D00504944204D61783A2558447C
:2028000000476F746F20506F73692E3100476F746F20506F73692E3200476F746F20506FD9
:2028200073692E3300476F746F20506F73692E34003928402847284E28552800000000007A
:20284000642800000000006E2800000000007D2800000000004469732E2041667465723A17
:20286000256973005B735D20303D4F6666004469732E2041667465723A256970005B735DC1
:2028800020303D4F66660000002100240027002A0000002200250028002B0000002000231D
:2028A00000260029000202020202020202040404040404040403030303030303030101017E
:2028C000010101010101020408102040800102040810204080010204081020408080402016
:2028E0001008040201000000010200000000000000040307060000000000000000000000A2
:202900000000000000494E46494E4954594E414ECDCCCC3D0AD7233C17B7D13877CC2B3217
:202920009595E6241FB14F0A000020410000C84200401C4620BCBE4CCA1B0E5AAEC59D7476
:20294000074FBD791B9A11241FBECFEFD0E4DEBFCDBF12E0A0E0B1E0EAE7F5E901E00BBF2C
:2029600002C007900D92A236B107D9F71BBE10E1A2E6B2E001C01D92AD39B107E1F719E23A
:20298000C6E4D9E204C02297FE010E946DCAC034D107C9F70E9449C50C94BBCA0C9400007C
:2029A000CF93DF93BC018230910510F462E070E0A0919910B0919A10ED01E0E0F0E040E045
:2029C00050E021C0888199818617970769F48A819B81309719F09383828304C090939A1088
:2029E00080939910FE0134C06817790738F44115510519F08417950708F4AC01FE018A815E
:202A00009B819C01E9012097E9F641155105A9F1CA01861B970B049708F4BA01E0E0F0E047
:202A20002AC08D919C91119784179507F9F46417750781F412968D919C911397309719F0BC
:202A40009383828304C090939A1080939910FD0132964CC0CA01861B970BFD01E80FF91F21
:202A60006193719302978D939C9340C0FD01828193819C01D9011097A1F6809197109091D3
:202A80009810892B41F480911401909115019093981080939710409116015091170141158C
:202AA000510541F44DB75EB78091120190911301481B590B2091971030919810CA01821B29
:202AC000930B8617970780F0AB014E5F5F4F8417950750F0420F531F509398104093971067
:202AE000F9016193719302C0E0E0F0E0CF01DF91CF910895CF93DF93009709F450C0EC01F0
:202B000022971B821A82A0919910B0919A10109709F140E050E0AC17BD0708F1BB83AA8322
:202B2000FE0121913191E20FF31FAE17BF0779F48D919C911197280F391F2E5F3F4F3983CE
:202B4000288312968D919C9113979B838A834115510571F4D0939A10C093991020C0129660
:202B60008D919C911397AD01009711F0DC01D3CFFA01D383C28321913191E20FF31FCE17A9
:202B8000DF0769F488819981280F391F2E5F3F4FFA01318320838A819B8193838283DF9121
:202BA000CF910895A0E0B0E0E8EDF5E10C948ACAEC015B016115710519F0FB019183808318
:202BC000F9908F2D90E00E9471CA892BC9F7FDE2FF1621F4F990EE24E39405C02BE2F216FA
:202BE00009F4F990EE248E0101501040C80165E079E243E050E00E946118892B01F58E01FD
:202C00000E5F1F4FC80168E079E245E050E00E946118892B19F48E01095F1F4FA114B1046D
:202C200019F0F50111830083E0FC04C070E090E080E814C070E090E080E86FEF08C1C801CA
:202C40006DE079E243E050E00E946118892B69F4A114B10429F470E090E080EC6FE7F7C08D
:202C60002296F501D183C083F6CF8824992440E050E060E070E0EF2DE053EA30A0F5F2E031
:202C8000EF2A8E2D90E09C0128703070E2FE06C0232B79F50894811C911C2BC0232B19F091
:202CA000089481089108DB01CA0112E0880F991FAA1FBB1F1A95D1F7480F591F6A1F7B1F62
:202CC000440F551F661F771F4E0F511D611D711D483929E9520729E9620729E1720748F019
:202CE00084E0E82A06C0EE3F31F4E3FC39C098E0E92AF990C0CFE53311F0E53189F5299164
:202D00002D3219F4E0E1EE2A05C02B3219F081E090E003C0299182E090E0E22FE053EA30C5
:202D200018F0C81BD90B1CC020E030E0FCE020383F075CF4C901880F991F880F991F280F6F
:202D4000391F220F331F2E0F311DE991E053EA3068F3E4FE03C0309521953F4F820E931EFC
:202D6000CE2CDD24E1FE07C0A114B10421F02197F501D183C083CB01BA010E94E9C67B019E
:202D80008C01F3E0CF22DD2423E0C216D10421F417FB109517F9109557016801C801B7016E
:202DA00020E030E040E050E00E9449C6882309F44AC097FE0DC024E2E22E29E2F22E909489
:202DC000819491089394C0E2D0E000E010E012C09CE3E92E99E2F92EF6CFF70125913591B9
:202DE00045915491C601B5010E94F9C85B016C018C1A9D0A8C169D0684F7D595C7950F5F2E
:202E00001F4F0630110529F08CEF9FEFE80EF91EF1CFC501D6017C018D018C2D880F8D2D57
:202E2000881F8F3F51F0C601B50120E030E040E050E00E9449C6882331F482E290E0909387
:202E40009C1080939B107E2D9F2D802F612F272F392F482F562FB901CA01CDB7DEB7ECE02E
:202E60000C94A6CA2F923F925F926F927F928F929F92AF92BF92CF92DF92EF92FF920F9343
:202E80001F93CF93DF938C011B01EA016115710519F0FB0191838083209749F0CE010297B8
:202EA000839728F020E030E040E050E0F6C0F801A1908F018A2D90E00E9471CA892BB9F7A8
:202EC000FDE2AF1631F4F801A1908F015524539407C0FBE2AF1619F4F801A1908F01552466
:202EE000209719F0C031D105C1F4F0E3AF1679F4F8018081883711F0883549F4F801A180C3
:202F00000E5F1F4FF2E05F2AC0E1D0E006C0209721F480E3A816E9F427C0C830D10531F1C3
:202F2000C930D10524F4C230D10531F50CC0CA30D10589F0C031D105F9F4C12CD12CE12CFC
:202F4000B8E0FB2E28C0C12CD12CE12CA0E4FA2E22C0CAE0D0E0FCECCF2EFCECDF2EFCEC27
:202F6000EF2EFCE0FF2E17C0C8E0D0E0C12CD12CE12CE0E1FE2E0FC09E01442737FD409536
:202F8000542F60E070E080E090E80E9422CAC901DA016C017D0120E030E040E050E060E088
:202FA0003E01882477FC8094982C70EDB72EBA0CE9E0EB1570F48A2D81548A3118F499ECCE
:202FC000B92E06C08A2D81568A3150F589EAB82EBA0C8B2D90E08C179D0714F56F3FE1F0A0
:202FE000C216D306E406F506B0F0CA01B901A40193010E94CFC99B01AC012B0D311D411D76
:20300000511D2130F0E03F07F0E04F07F0E85F0710F461E001C06FEFF801A1908F01C5CFC5
:203020002114310481F0662331F001501040F1011183008308C051FE1AC002501040F101DC
:203040001183008314C067FF12C050FC05C02FEF3FEF4FEF5FE704C020E030E040E050E840
:2030600082E290E090939C1080939B1016C050FE08C050954095309521953F4F4F4F5F4FF4
:203080000CC057FF0AC082E290E090939C1080939B102FEF3FEF4FEF5FE7B901CA01DF911E
:2030A000CF911F910F91FF90EF90DF90CF90BF90AF909F908F907F906F905F903F902F901D
:2030C0000895FB01DC014150504088F08D9181341CF08B350CF4805E659161341CF06B352D
:2030E0000CF4605E861B611171F3990B0895881BFCCFFB01DC0102C001900D924150504000
:20310000D8F70895FB01DC010D900020E9F7119701900D920020E1F70895FC0181918617B4
:2031200021F08823D9F7992708953197CF010895FB01DC018D91019080190110D9F3990BCF
:203140000895FB01DC0101900D920020E1F70895FB01DC014150504048F001900D920020B2
:20316000C9F701C01D9241505040E0F70895FC0181E090E00190061609F4CF010020D1F75A
:2031800001970895A0E0B0E0E8ECF8E10C948ECA7C01EB018A01690109C0CE012196F601A1
:2031A0000995F70181937F010150104001151105A1F7CDB7DEB7E8E00C94AACABF92CF92D9
:2031C000DF92EF92FF920F931F937B018C01FB010995B82EC8010196F7010995C82EC801DA
:2031E0000296F7010995D82EC8010396F7010995982F6B2D7C2D8D2D1F910F91FF90EF9083
:20320000DF90CF90BF900895DF92EF92FF920F931F937B018C01FB010995D82EC801019614
:20322000F7010995982F8D2D1F910F91FF90EF90DF900895A0E0B0E0E0E2F9E10C948ECA69
:20324000EC017B018A01690109C0CE012196F70161917F01F60109950150104001151105F5
:20326000A1F7CDB7DEB7E8E00C94AACABF92CF92DF92EF92FF920F931F93D52EC62EB72E5C
:2032800079018C01642FF9010995C80101966D2DF7010995C80102966C2DF7010995C80113
:2032A00003966B2DF70109951F910F91FF90EF90DF90CF90BF900895DF92EF92FF920F930A
:2032C0001F93D72E7A018C01FA010995C80101966D2DF70109951F910F91FF90EF90DF9039
:2032E00008959C01F999FECF32BD21BDF89A80B508950895609118017091190180911A0116
:2033000090911B016817790744F470931B0160931A0187EE93E00E94932A0895BC018931B1
:2033200091051CF469E170E005C0893C910514F068EC70E070934D0C60934C0C85E394E002
:203340000E94932A0895EF92FF920F931F93CF93DF93EC01893191051CF4C9E1D0E006C0CA
:2033600081E0C53FD80714F0C4EFD1E0BE01882777FD8095982F0E94EBC67B018C01609196
:203380004A0C70914B0C882777FD8095982F0E94EBC69B01AC01C801B7010E9450C69B010F
:2033A000AC016091460C7091470C8091480C9091490C0E94F9C86093460C7093470C8093DD
:2033C000480C9093490CD0934B0CC0934A0C86E294E0BE010E94932ADF91CF911F910F91A4
:2033E000FF90EF9008950E94BA509C0180911801909119012817390724F43093190120934D
:20340000180108950E94574D08952F923F924F925F926F927F928F929F92AF92BF92CF9258
:20342000DF92EF92FF920F931F93DF93CF93CDB7DEB728970FB6F894DEBF0FBECDBFA09092
:20344000CB0BB090CC0BC090CD0BD090CE0B2090CF0B3090D00B4090D10B5090D20B80917F
:20346000D30B9091D40BA091D50BB091D60B89839A83AB83BC832091F30B3091F40B409165
:20348000F50B5091F60B6090F70B7090F80B8090F90B9090FA0B8091FB0B9091FC0BA091AC
:2034A000FD0BB091FE0B8D839E83AF83B8878091870B882359F40F2EF0E0EF2EF0E0FF2E56
:2034C000F0E80F2FFFE31F2FF02D0AC00F2EF0E7EF2EF2E4FF2EF1E20F2FFDE31F2FF02D2F
:2034E000C601B5010E9483C5A80197010E94F9C8AB01BC0181EF93E022E00E94CE2B8091C7
:20350000870B882359F40F2EF0E0EF2EF0E0FF2EF0E80F2FFFE31F2FF02D0AC00F2EF0E7B9
:20352000EF2EF2E4FF2EF1E20F2FFDE31F2FF02DC201B101A40193010E9483C5A801970136
:203540000E94F9C8AB01BC0188EF93E022E00E94CE2B8091870B882359F40F2EF0E0EF2E53
:20356000F0E0FF2EF0E80F2FFFE31F2FF02D0AC00F2EF0E7EF2EF2E4FF2EF1E20F2FFDE3FC
:203580001F2FF02D69817A818B819C812D813E814F8158850E9483C5A80197010E94F9C80A
:2035A000AB01BC018CEF93E022E00E94CE2B2091C70B3091C80B4091C90B5091CA0BA09075
:2035C000940BB090950BC090960BD090970B8091870B882359F40F2EF0E0EF2EF0E0FF2EB7
:2035E000F0E80F2FFFE31F2FF02D0AC00F2EF0E7EF2EF2E4FF2EF1E20F2FFDE31F2FF02D0E
:20360000CA01B9010E94EBC6A60195010E94F9C8A80197010E94F9C8AB01BC0180E094E051
:2036200022E00E94E32B28960FB6F894DEBF0FBECDBFCF91DF911F910F91FF90EF90DF9036
:20364000CF90BF90AF909F908F907F906F905F904F903F902F9008950F931F9303E214E0FB
:20366000C8016DE00E94D64EC8016AE00E94D64E1F910F9108956F927F928F929F92AF9203
:20368000BF92CF92DF92EF92FF920F931F93DF93CF9300D000D0CDB7DEB76091640C7091B2
:2036A000650C8091660C9091670C2FE632E143E85AE30E94F9C87B018C01CE01019661E8D7
:2036C00070E044E050E021E739E10E94C218C801B70129813A814B815C810E9483C5AB0183
:2036E000BC018DE494E022E00E94CE2B8EE694E00E94702AE091CC01F091CD0163857485F9
:203700008585968520E030E040E751E40E9457C818160CF47AC06624772443018DE790E0A2
:2037200061E779E10E94DE187B018C01E60CF71C081D191DC801B70120E831E541E050E0F6
:203740000E9444CA922E832E742E652E622F732F842F952F20E83EEA4EEF5FEF0E94CFC974
:203760005B016C01AE0CBF1CC01ED11E8FE594E0492D582D672D762D0E94BA2AC601B50101
:2037800020E13EE040E050E00E9444CA122F032FF42EE52E81E794E0422F502F6F2D7E2D4F
:2037A0000E94BA2A612F702F8F2D9E2D20EF31EF4FEF5FEF0E94CFC9A60EB71EC81ED91E72
:2037C000C601B5012CE330E040E050E00E9444CA88E794E0BA01A9010E94BA2A80E894E0A3
:2037E0000E94F72A0F900F900F900F90CF91DF911F910F91FF90EF90DF90CF90BF90AF9000
:203800009F908F907F906F9008950E9462C32091600C3091610C4091620C5091630C621B91
:20382000730B840B950B28EE33E040E050E00E9422CAC901DA013C014D0170CF1F93182F6C
:20384000E0917502F091760244A555A566A577A584E094E022E00E94CE2BE0917502F0919F
:20386000760240A951A962A973A983E294E020E00E94CE2B0E943538AB01BC0187E094E0FF
:2038800022E00E94CE2B4091960150919701609198017091990183E294E020E00E94CE2B11
:2038A000112391F08AE194E061E070E00E94CB2A6CEF7FE080918E0190918F01681B790B3A
:2038C0008FE194E00E94CB2AE0918B01F0E0E85BFB4F608185E194E070E00E94CB2AE09100
:2038E0001E01EF3F29F4E0917502F0917602E081F0E0E85BFB4F60818BE094E070E00E940D
:20390000CB2A0E942C1B1F910895809164028823C1F0109264020E94454180911D01815079
:2039200080931D01882349F480911C01833010F40E94073B85E080931D018EE69FE00E947A
:2039400078C0089508C00E943C4A0E94851C8EE69FE00E941A9A8091810B8823A1F7089599
:20396000CF93DF9397FD10C0EC018F3F910521F01CF0CFEFD0E002C0009731F08091010C9B
:2039800088608093010C07C08091010C877F8093010CC0E0D0E0662311F00E94A21C8091C9
:2039A0004B0490E0C817D90729F083E494E0BE010E94932AC0934B04DF91CF9108952F92A7
:2039C0003F924F925F926F927F928F929F92AF92BF92CF92DF92EF92FF920F931F93DF93A4
:2039E000CF93CDB7DEB7E0970FB6F894DEBF0FBECDBF6C0180912702282F84FF19C0D6015D
:203A00008C9182FD09C081FF13C016968D919C9117978F36910561F00E9462C3609340049F
:203A20007093410480934204909343040C946E29F6010081118102FF75C380859185843131
:203A4000910509F42DC28531910558F48430910520F4029708F040C020C0049709F056C3D0
:203A6000E1C18A35910509F465C28B35910540F48531910509F418C24C9709F047C317C2BF
:203A80008C35910509F45DC28C35910508F455C28C39910509F03AC30EC312FF12C0F6014D
:203AA000878D90A1A1A1B2A12091000C0097A105B10519F0822F806202C0822F8F7D80934E
:203AC000000CC6010E94AD6F882309F41FC381E061E00E940C661AC38091CB0B9091CC0B59
:203AE000A091CD0BB091CE0B89879A87AB87BC878091CF0B9091D00BA091D10BB091D20BEB
:203B00008D879E87AF87B88B8091D30B9091D40BA091D50BB091D60B898B9A8BAB8BBC8B1B
:203B2000C6010E94AD6F882309F4F0C2FE01319688E0DF011D928A95E9F7F601828180FD73
:203B400005C020E030E040E050E007C0D60197962D913D914D915C919A978091870B88239F
:203B600051F0CA01B90123E333E34BEC51E40E94F9C89B01AC0129833A834B835C83F6013E
:203B8000828181FD05C020E030E040E050E007C0D6019B962D913D914D915C919E97809113
:203BA000870B882351F0CA01B90123E333E34BEC51E40E94F9C89B01AC012D833E834F838B
:203BC0005887FE01759680E1DF011D928A95E9F78091CB0B9091CC0BA091CD0BB091CE0B0B
:203BE0008D8B9E8BAF8BB88F8091CF0B9091D00BA091D10BB091D20B898F9A8FAB8FBC8F2B
:203C00008091D30B9091D40BA091D50BB091D60B8D8F9E8FAF8FB8A36091EF0B7091F00BB9
:203C20008091F10B9091F20B0E94EBC62091940B3091950B4091960B5091970B0E94F9C8FD
:203C400069A37AA38BA39CA3F601828182FFC7C087A490A8A1A8B2A88091870B882351F037
:203C6000C501B40123E333E34BEC51E40E94F9C84B015C016D897E898F89988D29853A858E
:203C80004B855C850E9482C56DA77EA78FA798AB698D7A8D8B8D9C8D2D853E854F85588970
:203CA0000E9482C52B013C01C501B40120E030E040E850E40E94F9C8A50194010E94F9C8CA
:203CC0007B018C016DA57EA58FA598A99B01AC010E94F9C89B01AC01C801B7010E9482C5D2
:203CE0007B018C01C301B201A30192010E94F9C89B01AC01C801B7010E9482C50E9466C926
:203D00007B018C016DA57EA58FA598A9A30192010E9464C89B01AC0117FB109517F9109536
:203D2000C801B7010E9450C67B018C01A80197010E94B3C9882329F085E894E00E94FC2A75
:203D4000E5C1D60118968D919C911997039721F417FB109517F91095C501B40120E030E097
:203D600040E050E00E9449C6882344F417FB109517F91095B7FAB094B7F8B094C301B20194
:203D8000A80197010E94F9C89B01AC016DA57EA58FA598A90E9482C520E030E040E05FE331
:203DA0000E94F9C869837A838B839C836DA57EA58FA598A9A80197010E94F9C89B01AC01F3
:203DC000C301B2010E9483C520E030E040E05FE30E94F9C86D837E838F8398870CC06981D5
:203DE0007A818B819C812D813E814F8158850E9464C84B015C01E0E0D60118968D919C917E
:203E00001997029709F4E1E0CE010996BE016B5E7F4FAE014F5F5F4F95018401EE2E0E94F3
:203E2000B75674C10E94A21CF6018081918193FD04C0EE24FF24870107C0D6019396ED9081
:203E4000FD900D911C91969792FF0DC0F601678D70A181A192A128EE33E040E050E00E9493
:203E6000CFC97B018C010E9462C35B016C01AE0CBF1CC01ED11E04C00E943C4A0E94851C80
:203E80000E9462C3A6019501261B370B480B590BDA01C90180509449A543B74768F336C15A
:203EA00081E08093870B32C11092870B2FC1C80188739070892B11F080E008C0C80156E045
:203EC000969587955A95E1F78095817006FF08C01092C70B1092C80B1092C90B1092CA0B2B
:203EE000882321F041E051E061E01DC0D6012D913C91C90188739070892BC1F0C90143E01D
:203F0000969587954A95E1F7582F5170C90134E0969587953A95E1F7682F617025FD02C043
:203F200040E001C041E0852F0E94617480E00E940B6BECC01092B90BE9C081E08093B90BE9
:203F4000E5C0A090F30BB090F40BE090F50BF090F60B6090F70B7090F80B8090F90B909035
:203F6000FA0B2090FB0B3090FC0B4090FD0B5090FE0B03FF21C0F601228533854485558522
:203F80008091870B882351F0CA01B90123E333E34BEC51E40E94F9C89B01AC01CA01B90154
:203FA0002091CB0B3091CC0B4091CD0B5091CE0B0E9482C55B017C0104FF23C0D6011E964C
:203FC0002D913D914D915C9151978091870B882351F0CA01B90123E333E34BEC51E40E9464
:203FE000F9C89B01AC01CA01B9012091CF0B3091D00B4091D10B5091D20B0E9482C53B017B
:204000004C0105FF21C0F60122893389448955898091870B882351F0CA01B90123E333E335
:204020004BEC51E40E94F9C89B01AC01CA01B9012091D30B3091D40B4091D50B5091D60B41
:204040000E9482C51B012C01B501C7019301A401710182010E94EA6AD6018C9186FF56C0FD
:2040600056962D913D914D915C9159978091870B882351F0CA01B90123E333E34BEC51E471
:204080000E94F9C89B01AC01CA01B9012091E7013091E8014091E9015091EA010E94F9C8C2
:2040A0000E94B8C66093C70B7093C80B8093C90B9093CA0B2BC080E061E040E00E94617443
:2040C00000D000D02091360C3091370C4091380C5091390C8091FF0190910002A0910102A6
:2040E000B0910202EDB7FEB781839283A383B48360E87FE483EC97E47B018C015B016C0145
:204100000E941A730F900F900F900F900E9462C360934004709341048093420490934304EB
:204120000C946E2901FD02C00C945C29D60116968D919C9117978237910509F4C9C6833752
:20414000910508F081C08A32910509F47EC18B329105C8F58931910509F427C18A3191056C
:20416000C8F48631910509F404C18731910548F48431910509F4F3C0459711F00C946E29DB
:20418000F3C08731910509F4F9C0489711F00C946E2906C18C31910509F42BC18D319105FA
:2041A00048F48A31910509F406C14B9711F00C946E291AC18E31910509F427C1809711F067
:2041C0000C946E2931C18336910509F427C684369105D8F48435910509F49AC58535910566
:2041E00050F48235910509F48CC58335910511F00C946E2989C58535910509F4A5C58C3594
:20420000910511F00C946E29C0C58A36910509F45CC58B36910550F48836910509F45DC1CD
:204220008936910511F00C946E2907C28D36910509F40DC28F36910509F430C68B3691055E
:2042400011F00C946E2953C58E3C910509F468C78F3C9105E8F58E3B910509F4E9C38F3B72
:204260009105D8F48537910509F435C68637910550F48337910509F424C68437910511F072
:204280000C946E297DC48737910509F435C68C38910511F00C946E2996C18B3C910509F417
:2042A000E3C68C3C910550F4893C910509F450C68A3C910511F00C946E2990C68C3C9105FD
:2042C00009F4E5C68D3C910511F00C946E2925C7B1E080399B0709F498C7E1E081399E074B
:2042E000E0F48D3D910509F480C78E3D910550F48F3C910509F418C78C3D910511F00C9464
:204300006E2961C7F1E08F329F0709F4AAC48E55914011F00C946E29CAC731E0843F930750
:2043200009F4ACC741E0853F940750F451E08139950709F46DC78259914009F0CFC76BC724
:20434000B1E0863F9B0709F4AFC7E1E0863F9E0708F49CC7875F914009F0C0C7DEC682ED1E
:204360009CE00E94487BBAC782ED9CE00E94BB7EB5C782ED9CE00E947E79B0C717FFAEC713
:2043800082ED9CE060E00E94D689D601D3966D917C91D49782ED9CE040E00E94B17A9EC7FE
:2043A00082ED9CE00E94967999C782ED9CE060E00E94077E93C712FF91C7F601478D50A130
:2043C00061A172A180913C0D882309F487C74093330D5093340D6093350D7093360D82E163
:2043E0009DE00E9467877AC782ED9CE00E948C7A75C717FF73C7D601D3966D917C91D4979A
:2044000082ED9CE00E944D7A69C717FF67C782ED9CE060E00E94D689F60163A974A982ED19
:204420009CE00E94FE795AC717FF58C782ED9CE060E00E94D689D601D3966D917C91D497AF
:2044400082ED9CE00E94C27949C712FF47C713FF45C7F601878D90A1A1A1B2A1B7FD3EC7BD
:204460008F3F9105A105B10511F00CF037C703A114A120E030E0F901EE0FFF1FE155FE4F80
:20448000E4918E2F90E08017910709F427C72F5F3F4F2833310579F717FD20C7802F61E058
:2044A0000E9499C4802FD6015F966C910E9416C5F601678D70A1802F0E941BC480EB94E0FD
:2044C000B8010E94CB2AD6015F966D917C9190978CEB94E00E94932A01C70E94B93A88233C
:2044E00009F0FCC60E9462C3609340047093410480934204909343048091270283FDEEC68A
:20450000F6018081918193FD0AC092FF0AC0878D90A1A1A1B2A10097A105B10511F40E9468
:20452000A21CD6018D919C91119792FFD7C65F968D909D90AD90BC9092979C012070317006
:2045400091FF1EC05E960C91232B11F410E00FC010E0F601628D738D848D958D20E030E031
:2045600040E050E00E9457C818160CF411E0C501B4010E94EBC6402F212F0E94063FAEC623
:20458000E0917502F09176020081232B11F410E011C010E0D6015A966D917D918D919C9197
:2045A0005D9720E030E040E050E00E9457C818160CF411E0C501B4010E94EBC6402F212F3A
:2045C0000E94063F8BC60E94B93A882309F086C60E9462C36093400470934104809342047F
:2045E000909343048091270283FD78C6F6018081918192FF73C6E78CF0A001A112A190FDA0
:2046000002C0BB2412C0BB24D6015A966D917D918D919C915D9720E030E040E050E00E9434
:2046200057C8181614F4BB24B394C801B7010E94EBC64B2D0E94423B51C683E016950795D3
:204640008A95E1F7802F81700E941E1C47C60E94B93A882309F042C60E9462C3609340049B
:204660007093410480934204909343048091270283FD34C68EE69FE065E072E040E00E942F
:2046800020998EE69FE00E94B4B60E94A21C8090750290907602F6012081318131FF07C0A2
:2046A000868D882321F41FE1812E11E0912E32FF27C0D6015F96ED90FD900D911C91929766
:2046C000F401A08030FD02C0BB2412C0BB24D6015A966D917D918D919C915D9720E030E024
:2046E00040E050E00E9457C8181614F4BB24B394C801B7010E94EBC64A2D2B2D0E94063FC3
:20470000F40164A575A586A597A520A931A942A953A90E9482C57B018C0120E030E040E06E
:2047200050E00E9457C818165CF4C801B70120E030E040E050E40E9449C6882364F4CEC5DE
:20474000C801B70120E030E040E050EC0E9457C818160CF4C3C53324D4019A962D913C910E
:204760009B9798968D919C9199978217930714F4332433940E9462C369A77AA78BA79CA798
:2047800044245524320110E00E9462C36DA37EA38FA398A7DC01CB0129A53AA54BA55CA565
:2047A000821B930BA40BB50B895E9340A040B04058F080E00E941E1C8DA19EA1AFA1B8A527
:2047C00089A79AA7ABA7BCA70E94851C80917502909176028816990609F067C0D4019396F4
:2047E000ED90FC9094971E141F040CF05EC0112309F05BC0332009F458C091966D917C9134
:204800009297882777FD8095982F0E94EBC69B01AC01F40164A575A586A597A50E9457C894
:2048200018160CF042C000D000D000D00DB71EB70F5F1F4F662777276E197F09882777FD0A
:204840008095982F0E94EBC62091E7013091E8014091E9015091EA010E94F9C80E94B8C6DC
:204860005B016C01F40187859089A189B289F80180839183A283B3831482158260E070E0C8
:2048800080E090E020E030E040E050E0EE24FF2487010E94E56911E02DB73EB72A5F3F4F5A
:2048A0000FB6F8943EBF0FBE2DBF411451046104710409F053C03320C9F0D401D0966D911C
:2048C0007D918D919C91D39720E030E040E85FE30E9482C59B01AC01F40164A575A586A526
:2048E00097A50E9457C887FF1AC04ECFD401D0966D917D918D919C91D39720E030E040E80A
:204900005FE30E9483C59B01AC01F40164A575A586A597A50E9449C618160CF435CFD401EB
:204920005F966D917C919097882777FD8095982F28EE33E040E050E00E94CFC92B013C0135
:204940002DA13EA14FA158A5420E531E641E751E411451046104710409F416CFD301C201EA
:204960002DA13EA14FA158A5821B930BA40BB50B80509449A543B74708F406CF112309F45E
:204980004AC080917502909176028816990609F042C000D000D000D00DB71EB70F5F1F4FCF
:2049A000D40193966D917C919497882777FD8095982F0E94EBC62091E7013091E80140915D
:2049C000E9015091EA010E94F9C80E94B8C65B016C01F40187859089A189B289F80180835A
:2049E0009183A283B3831482158260E070E080E090E020E030E040E050E0EE24FF2487019E
:204A00000E94E5692DB73EB72A5F3F4F0FB6F8943EBF0FBE2DBF1092AE0F0E9462C3609396
:204A2000400470934104809342049093430456C423FD54C48EE69FE069EF71E040E00E9477
:204A400020998EE69FE00E94B4B60E94A21CD6018D919C91119792FF21C05F96ED90FD9003
:204A60000D911C91929790FD02C0BB2410C0BB24F601628D738D848D958D20E030E040E09C
:204A800050E00E9457C8181614F4BB24B394C801B7010E94EBC64B2D0E94423B60919201DA
:204AA000709193018091940190919501209196013091970140919801509199010E9482C595
:204AC0007B018C0120E030E040E050E00E9457C818165CF4C801B70120E030E040E450E445
:204AE0000E9449C6882364F4F9C3C801B70120E030E040E450EC0E9457C818160CF4EEC3B5
:204B00000E9462C37B018C0114C00E9462C36E197F09800B910B695E73408040904038F0C2
:204B200080E00E941E1C0E9462C37B018C010E94851C609192017091930180919401909146
:204B4000950120E030E040E05FE30E9483C5209196013091970140919801509199010E943B
:204B600049C687FDD2CF1092AE0F0E9462C360934004709341048093420490934304AEC328
:204B800023FDACC30E9462C34B015C010E9462C3681979098A099B09695E7340804090400B
:204BA00038F080E00E941E1C0E9462C34B015C010E94851CC090CC01D090CD01D6011B960B
:204BC000ED90FD900D911C911E97C801B70120E030E040EF51E40E9457C81816A4F4C80186
:204BE000B701F60127813085418552850E9482C59F7720E030E040E85FE30E9457C81816A4
:204C000014F4772402C077247394C090CE01D090CF01D6011B96ED90FD900D911C911E97AC
:204C2000C801B70120E030E040EF51E40E9457C818169CF4C801B701F60127813085418565
:204C400052850E9482C59F7720E030E040E85FE30E9457C818160CF499CF772009F496CFB4
:204C60003DC312FD03C026E930E005C0D6015F962D913C91909713FD03C0CC24DD240AC072
:204C8000F601C3A0D4A0F2E0CF16D1041CF0B2E0CB2ED12CF601EE0FFF1FE453FE4FE08030
:204CA000F180B901882777FD8095982F0E94EBC6AB01BC01E3E016950795EA95E1F701703C
:204CC000C7012C2D0E94A93B09C312FD03C08FEF90E005C0D6015F968D919C919097612F0E
:204CE00066956695669561700E94B01CF7C2612F669566956695617080E090E00E94B01C3B
:204D0000EDC21092BA0BEAC281E08093BA0BE6C212FF14C0F601678D70A181A192A128EEA4
:204D200033E040E050E00E94CFC96093D1017093D2018093D3019093D401D0C20E94A21C6A
:204D400081E00E94A475CAC212FF16C0D6015F966D917D918D919C91929728EE33E040E02F
:204D600050E00E94CFC960934404709345048093460490934704B2C210924404109245042E
:204D80001092460410924704A9C203FF0DC0F60182859385A485B5858093DB019093DC0198
:204DA000A093DD01B093DE01D6018C9184FF0EC01E968D919D910D90BC91A02D8093DF01D1
:204DC0009093E001A093E101B093E201F601808185FF0CC082899389A489B5898093E301C3
:204DE0009093E401A093E501B093E6010E944E76D6018C9186FF72C2E0917502F091760274
:204E000056962D913D914D915C915997218732874387548780810E94CC3F60C212FD07C0B3
:204E200040E1842E47E2942EA12CB12C0DC0F601678D70A181A192A128EE33E040E050E073
:204E40000E94CFC94B015C0103FD5E9A04FD5E9A05FD159A0E9462C37B018C01E80CF91CF4
:204E60000A1D1B1D02C00E94F2750E9462C3A8019701261B370B480B590BDA01C901805A47
:204E80009648A140B04078F3D6013C9133FD5E9834FD5E9835FF22C2159820C212FF04C08B
:204EA000F601878D809327028091270283FF16C260E070E080E090E040E020E00E94063FB0
:204EC0000DC286E192E00E94F72A0E943B1B06C20E94051A03C217FF01C2D601D3966D910A
:204EE0007C91D4978EE69FE040E00E944C998EE69FE00E94B4B6F2C10E94A21C87EC94E0A7
:204F00000E94702A329B03C084EC94E002C081EC94E00E94702A85ED94E00E94702A339B12
:204F200003C084EC94E002C081EC94E00E94702A83EE94E00E94702A349B03C084EC94E054
:204F400002C081EC94E00E94702A0E942C1BC6C103FF0DC0F60182859385A485B5858093A7
:204F6000070290930802A0930902B0930A02D6018C9184FF0EC01E968D919D910D90BC913F
:204F8000A02D80930B0290930C02A0930D02B0930E02F601808185FF0CC082899389A489C2
:204FA000B58980930F0290931002A0931102B0931202D6018C9186FF0EC056968D919D913E
:204FC0000D90BC91A02D8093130290931402A0931502B09316020E944E7680C103FF0DC09E
:204FE000F60182859385A485B5858093170290931802A0931902B0931A02D6018C9184FFAB
:205000000EC01E968D919D910D90BC91A02D80931B0290931C02A0931D02B0931E02F601EE
:20502000808185FF0CC082899389A489B58980931F0290932002A0932102B0932202D60180
:205040008C9186FF0EC056968D919D910D90BC91A02D8093230290932402A0932502B093D3
:2050600026020E944E763AC112FF38C1F601278D30A141A152A112161306140615061CF0CA
:2050800020931C012BC181E080931C0127C1809175029091760212FD03C0FC01B59610C0D0
:2050A000F601878D90A1A1A1B2A1B7FD17C10097A105B10519F4E4E4F1E002C0EBE8F1E094
:2050C00003FF0BC0D6011A962D913D914D915C911D97228F338F448F558FD6018C9184FFD0
:2050E0000AC01E962D913D914D915C915197268F378F40A351A3D6018C9185FF0AC0529677
:205100002D913D914D915C91559722A333A344A355A3CF010E94E937E1C00E94142DDEC01E
:20512000C6010E947F35DAC003FF0DC0F60182859385A485B58580934E0C90934F0CA09352
:20514000500CB093510CD6018C9186FF11C0E0917502F091760256962D913D914D915C91E5
:205160005997278B308F418F528F80810E94CC3FF601808185FF0CC082899389A489B58995
:205180008093520C9093530CA093540CB093550C40914E0C50914F0C6091500C7091510CD3
:2051A00081EF94E022E00E94CE2B4091520C5091530C6091540C7091550C87EF94E022E060
:2051C0000E94E32B8BC012FD05C024E630E040E050E007C0D6015F962D913D914D915C91AC
:2051E0009297C9010E94A31979C012FD05C024E630E040E050E005C0F601278D30A141A1C4
:2052000052A1C9010E948E1969C00E94A21C66C00E94D96B63C010FF08C0D6015A96CD90D5
:20522000DD90ED90FC905D9708C0C090460CD090470CE090480CF090490CB80134E0769576
:2052400067953A95E1F76170A80125E0569547952A95E1F74170980196E0369527959A9558
:20526000E1F7217083E0169507958A95E1F7802F8170870176010E94F57430C080E00E9488
:205280008E2F80ED97E00E94162B28C00E947532E0917502F091760280810E94CC3F80EF5B
:2052A00097E00E94162B1AC00E94FA3517C087EE91E00E94F72A12C011FF07C00E94A21C60
:2052C000F601868D0E94CC3F09C022FF07C086ED93E00E94702AC6010E947444E0960FB6E8
:2052E000F894DEBF0FBECDBFCF91DF911F910F91FF90EF90DF90CF90BF90AF909F908F9054
:205300007F906F905F904F903F902F900895CF93DF930E943C4A0E946344EC018EE69FE061
:205320000E941A9A2097D1F080913D0D882381F0888181FF04C08E819F814D9791F082EDD8
:205340009CE0BE010E94EE7BCE010E94324903C0CE010E94DF1CCE010E9443490E94F275E6
:20536000D8CF82ED9CE00E942D7AEECFCF93DF9320C080913D0D882381F0888181FF04C01D
:205380008E819F814D9739F182ED9CE0BE010E94EE7BCE010E94324903C0CE010E94DF1C00
:2053A000CE010E9443490E94851C8EE69FE00E941A9A8091810B882329F40E946344EC01C9
:2053C000009771F00E943C4A8EE69FE00E941A9A209779F6E8CF82ED9CE00E942D7AD9CFAB
:2053E000DF91CF910895CF93DF93EC0105C0219683E294E00E94D64E68816623C1F7DF91CA
:20540000CF910895AF92BF92CF92DF92EF92FF920F931F93DF93CF93CDB7DEB72B970FB651
:20542000F894DEBF0FBECDBFC62ED92E1B869BE0A92EB12CAC0EBD1E6C2D9D2D2AE030E00D
:2054400040E050E00E9422CAD52E7901042F152F80E3C80EC801B7012AE030E040E050E056
:205460000E94CFC9C61AF501C2925F01CE2C7F2D802FE114F10401051105F1F6CF010E94B4
:20548000F3292B960FB6F894DEBF0FBECDBFCF91DF911F910F91FF90EF90DF90CF90BF909D
:2054A000AF900895EF92FF920F931F937B018C0197FF0DC083E294E06DE20E94D64E1095AB
:2054C0000095F094E094E11CF11C011D111DC801B7010E94022A1F910F91FF90EF9008959F
:2054E000CF93DF93EC0104C083E294E00E94D64EFE01649121966623B9F7DF91CF91089537
:20550000EF92FF920F931F937A018B010E94702AC801B7010E94022A0E942C1B1F910F915A
:20552000FF90EF900895EF92FF920F931F937B010E94702A0027F7FC0095102FC801B70133
:205540000E94522A0E942C1B1F910F91FF90EF900895EF92FF920F931F937A018B010E943A
:20556000702AC801B7010E94022A1F910F91FF90EF900895EF92FF920F931F937A018B01DA
:205580000E94702AC801B7010E94522A1F910F91FF90EF900895EF92FF920F931F937B0153
:2055A0000E94702A0027F7FC0095102FC801B7010E94522A1F910F91FF90EF9008950F9385
:2055C0001F938B010E94702AC8010E94F3291F910F9108950F931F938B010E94702AC801F8
:2055E0000E94F3290E942C1B1F910F9108950E94702A0E942C1B08950F931F938C0181ED06
:2056000092E00E94702AC8010E94F72A1F910F9108950F931F938C0188ED92E00E94702A5F
:20562000C8010E94F72A1F910F9108950F931F938C0188ED92E00E94702AC8010E94702AE8
:205640001F910F9108959F92AF92BF92CF92DF92EF92FF920F931F93CF93DF937B018C0185
:20566000942EA80197010E94B3C9882319F089EC92E020C0C0E0D0E057016801E894D7F832
:20568000C601B5012FEF3FEF4FE75FE70E94B3C9882351F4C601B5012FEF3FEF4FE75FE772
:2056A0000E9449C6181614F0C1E0D0E0219729F08DEC92E00E94702A65C0C801B70120E018
:2056C00030E040E050E00E9449C688234CF483E294E06DE20E94D64E17FB109517F9109574
:2056E00020E030E040E05FE3DD240BC0CA01B90120E030E040E251E40E9450C69B01AC017F
:20570000D394D91498F3C801B7010E9483C55B016C010E94BDC67B018C010E94022A9920C1
:2057200029F083E294E06EE20E94D64EC801B7010E94E9C69B01AC01C601B5010E9482C5E0
:205740001FC020E030E040E251E40E94F9C87B018C010E94B8C65B016C01CC24B7FCC094B7
:20576000DC2CC601B5010E94522AC601B5010E94EBC69B01AC01C801B7010E9482C59A94D5
:205780009920F9F6DF91CF911F910F91FF90EF90DF90CF90BF90AF909F900895DF92EF9219
:2057A000FF920F931F937A018B01D22E0E94702AC801B7014D2D0E94232B1F910F91FF90F7
:2057C000EF90DF900895DF92EF92FF920F931F937A018B01D22E0E94702AC801B7014D2D29
:2057E0000E94232B0E942C1B1F910F91FF90EF90DF9008959C01F999FECF32BD21BDF89A0B
:2058000080B508959C01F999FECF1FBA32BD21BD60BD0FB6F894FA9AF99A0FBE0895885C31
:20582000904022E08835920778F464E670E00E94FBC96F5F7F4F87E598E00E94CB2A83E258
:2058400094E060E20E94D64E08950F931F93CF93DF93EC018B018DE598E0BE010E94CB2A4E
:2058600083E294E060E20E94D64EF999FECFD2BDC1BDF89A60B570E0882777FD8095982FE5
:205880000E94522A83E294E060E20E94D64ECE010E940F2CC8010E94F72ADF91CF911F9151
:2058A0000F910895CF92DF92EF92FF920F931F938C016B0184E698E0B8010E94CB2A83E2E3
:2058C000E82E84E0F82EC70160E20E94D64EC8016AEF7BE20E940419AA2797FDA095BA2F97
:2058E000BC01CD010E94522AC70160E20E94D64EC8010E940F2CC6010E94F72A1F910F91AF
:20590000FF90EF90DF90CF900895CF92DF92EF92FF920F931F938C016B018BE698E0B8013B
:205920000E94CB2A93E2E92E94E0F92EC70160E20E94D64EC8016AEF7BE20E94DE180E9420
:20594000522AC70160E20E94D64EC8010E940F2CC6010E94F72A1F910F91FF90EF90DF90FE
:20596000CF900895F999FECF12BC11BCF89A80B5803171F48BE490E06AEF7BE20E94DE1827
:205980006093D5017093D6018093D7019093D8010895DF93CF9300D000D0CDB7DEB7BC0196
:2059A000CE01019644E050E02AEF3BE20E94C21829813A814B815C81B901CA010F900F90AA
:2059C0000F900F90CF91DF910895BF92CF92DF92EF92FF920F931F938C016B01B42E82E74F
:2059E00098E0B8010E94CB2A23E2E22E24E0F22EC70160E20E94D64EC8010E94C92C4B2DFE
:205A00000E94232BC70160E20E94D64EC8010E940F2CC6010E94F72A1F910F91FF90EF9038
:205A2000DF90CF90BF9008958BE490E069E778E00E94852C81E890E062E878E043E00E9492
:205A4000E52C8DE790E067E978E00E94852C8FE490E06AEA78E00E94852C83E590E068EC48
:205A600078E00E94852C83E090E06BEA79E044E00E94E52C87E090E06FEB79E044E00E94D3
:205A8000E52C8BE090E063ED79E044E00E94E52C8FE090E067EE79E043E00E94E52C83E1D3
:205AA00090E063E07AE043E00E94E52C87E190E06FE17AE043E00E94E52C8BE190E06BE381
:205AC0007AE043E00E94E52C8FE190E069E57AE043E00E94E52C83E290E067E77AE043E098
:205AE0000E94E52C87E290E067E879E043E00E94E52C8FE290E068E979E043E00E94E52C3B
:205B000085E890E061EF78E043E00E94E52C89E890E061E079E043E00E94E52C8DE890E0F4
:205B200061E179E043E00E94E52C81E990E061E279E043E00E94E52C85E990E063E379E02B
:205B400043E00E94E52C89E990E065E479E043E00E94E52C83E390E065E97AE043E00E94D2
:205B6000E52C87E390E062EB7AE043E00E94E52C8BE390E06FEC7AE043E00E94E52C8FE3E2
:205B800090E06CEE7AE043E00E94E52C83E490E060E17BE043E00E94E52C87E490E064E3A0
:205BA0007BE043E00E94E52C8AE690E065E07CE00E94252C8BE690E06CE17CE00E94252CC3
:205BC0008CE790E06EE27CE00E94252C8CE690E060E47CE043E00E94E52C80E790E06FE4C1
:205BE0007CE043E00E94E52C84E790E06EE57CE043E00E94E52C88E790E06DE67CE00E94E3
:205C0000252C88EC90E067E87CE043E00E94E52C8CEC90E064E97CE043E00E94E52C80EDFA
:205C200090E069EA7CE043E00E94E52C84ED90E06FEB7CE043E00E94E52C88ED90E065EDCB
:205C40007CE00E94252C89ED90E068EE7CE00E94252C85EF90E066EF7CE00E94252C8AED6B
:205C600090E064E07DE044E00E94E52C8EED90E069E17DE044E00E94E52C82EE90E064E2AD
:205C80007DE044E00E94E52C86EE90E06FE27DE00E94252C87EE90E065E47DE00E94852C6D
:205CA0008BEE90E066E57DE00E94852C8FEE90E067E67DE00E94522C8AEF90E060E87DE0BB
:205CC0000E94522C8CEF90E066EA7DE00E94522C8EEF90E06CEC7DE00E94252C0895DF9348
:205CE000CF9300D000D0CDB7DEB749835A836B837C83BE016F5F7F4F44E050E022E03CE224
:205D00000E941A190F900F900F900F90CF91DF91089588E293E040E050E060EA70E40E9458
:205D20006F2E8CE293E040E050E060E070E40E946F2E88E493E040E050E068E473E40E944E
:205D40006F2E80E293E040E050E060E070E00E946F2E84E293E040E050E060E070E00E9457
:205D60006F2E80E393E040E050E066E173E40E946F2E84E393E040E050E060EA70EC0E9411
:205D80006F2E88E393E040E050E066E173E40E946F2E8CE393E040E050E060E273E40E94EE
:205DA0006F2E80E493E040E050E060EF71EC0E946F2E84E493E040E050E060E273E40E94CE
:205DC0006F2E81EA93E040E050E060E870E40E946F2E0895EF92FF920F931F936091640CB9
:205DE0007091650C8091660C9091670C20E030E040E050E00E9449C6882309F48AC00E9475
:205E000062C32091600C3091610C4091620C5091630C621B730B840B950B28EE33E040E010
:205E200050E00E9422CA79018A018DE790E06AEF7BE20E94DE18E60EF71E081F191F8DE791
:205E400090E0B801A70122E03CE20E94361981E890E00E94C92C7B018C016091640C709185
:205E6000650C8091660C9091670C2FE632E143E85AE30E94F9C89B01AC01C801B7010E943B
:205E800083C5AB01BC0181E890E00E946F2E80E090E0A0E0B0E08093640C9093650CA0930F
:205EA000660CB093670C0E9462C36093600C7093610C8093620C9093630C20E030E040E0E1
:205EC0002836310539F0F999FECF32BD21BDF89A80B5480F2F5F3F4F88E02030380781F730
:205EE000F999FECF88E690E092BD81BDF89A80B5481769F0F999FECF1FBA88E690E092BDF4
:205F000081BD40BD0FB6F894FA9AF99A0FBE0E943B1B1F910F91FF90EF9008951F93182F15
:205F20004091D5015091D6016091D7017091D8018BE490E022E03CE20E9436194091440456
:205F40005091450460914604709147048FE490E022E03CE20E9436194091D1015091D20145
:205F60006091D3017091D40183E590E022E03CE20E9436194091DB015091DC016091DD0163
:205F80007091DE0183E090E00E946F2E4091DF015091E0016091E1017091E20187E090E00E
:205FA0000E946F2E4091E3015091E4016091E5017091E6018BE090E00E946F2E4091EB0191
:205FC0005091EC016091ED017091EE018FE090E00E946F2E4091EF015091F0016091F10190
:205FE0007091F20183E190E00E946F2E4091F3015091F4016091F5017091F60187E190E048
:206000000E946F2E4091FB015091FC016091FD017091FE018BE190E00E946F2E4091FF01BB
:206020005091000260910102709102028FE190E00E946F2E409103025091040260910502B0
:206040007091060283E290E00E946F2E40914E0C50914F0C6091500C7091510C87E290E038
:206060000E946F2E4091520C5091530C6091540C7091550C8FE290E00E946F2E40910702C5
:20608000509108026091090270910A0283E390E00E946F2E40910B0250910C0260910D022A
:2060A00070910E0287E390E00E946F2E40910F025091100260911102709112028BE390E0EA
:2060C0000E946F2E40911702509118026091190270911A028FE390E00E946F2E40911B0264
:2060E00050911C0260911D0270911E0283E490E00E946F2E40911F02509120026091210251
:206100007091220287E490E00E946F2E20919E01F999FECF1FBA8AE690E092BD81BD20BD6E
:206120000FB6F894FA9AF99A0FBE2091A301F999FECF1FBA8BE690E092BD81BD20BD0FB67D
:20614000F894FA9AF99A0FBE2091A401F999FECF1FBA8CE790E092BD81BD20BD0FB6F89493
:20616000FA9AF99A0FBE4091A5015091A6016091A7017091A8018CE690E00E946F2E4091F7
:20618000A9015091AA016091AB017091AC0180E790E00E946F2E4091AD015091AE01609168
:2061A000AF017091B00184E790E00E946F2E2091B101F999FECF1FBA88E790E092BD81BD5C
:2061C00020BD0FB6F894FA9AF99A0FBE4091320C5091330C6091340C7091350C85E890E01E
:2061E0000E946F2E40913A0C50913B0C60913C0C70913D0C89E890E00E946F2E4091420C5F
:206200005091430C6091440C7091450C8DE890E00E946F2E40912E0C50912F0C6091300C43
:206220007091310C81E990E00E946F2E4091360C5091370C6091380C7091390C85E990E077
:206240000E946F2E40913E0C50913F0C6091400C7091410C89E990E00E946F2E8DE990E026
:2062600040E050E060E070E00E946F2E81EA90E040E050E060E070E00E946F2E85EA90E026
:2062800040E050E060E070E00E946F2E409128015091290160912A0170912B0188EC90E0AD
:2062A0000E946F2E40912E0150912F0160913001709131018CEC90E00E946F2E409136010A
:2062C00050913701609138017091390180ED90E00E946F2E409132015091330160913401E5
:2062E0007091350184ED90E00E946F2E20915701F999FECF1FBA88ED90E092BD81BD20BDB7
:206300000FB6F894FA9AF99A0FBE20915C01F999FECF1FBA89ED90E092BD81BD20BD0FB6DD
:20632000F894FA9AF99A0FBE20915D01F999FECF1FBA85EF90E092BD81BD20BD0FB6F894F7
:20634000FA9AF99A0FBE40915E0150915F0160916001709161018AED90E00E946F2E40912C
:2063600062015091630160916401709165018EED90E00E946F2E409166015091670160911C
:2063800068017091690182EE90E00E946F2E20916A01F999FECF1FBA86EE90E092BD81BD45
:2063A00020BD0FB6F894FA9AF99A0FBE4091200150912101609122017091230187EE90E0A8
:2063C00022E03CE20E943619409124015091250160912601709127018BEE90E022E03CE265
:2063E0000E94361960913E0170913F018FEE90E042E05CE20E945C19609140017091410162
:206400008AEF90E042E05CE20E945C1960914201709143018CEF90E042E05CE20E945C1941
:2064200020918901F999FECF1FBA8EEF90E092BD81BD20BD0FB6F894FA9AF99A0FBE81EFDD
:2064400090E040E050E060E070E00E946F2E86EF90E040E050E060E070E00E946F2E112375
:20646000A1F08DE790E040E050E060E070E022E03CE20E94361981E890E040E050E060E04D
:2064800070E00E946F2E0E94892EF999FECF1FBA89E690E092BD81BD87E080BD0FB6F8947B
:2064A000FA9AF99A0FBE20E030E040E02836310539F0F999FECF32BD21BDF89A80B5480FB1
:2064C0002F5F3F4F88E02030380781F7F999FECF1FBA88E690E092BD81BD40BD0FB6F89440
:2064E000FA9AF99A0FBE1F9108951F93F999FECF89E690E092BD81BDF89A10B58BE490E0A8
:206500006AEF7BE20E94DE186093D5017093D6018093D7019093D8018FE490E06AEF7BE20A
:206520000E94DE186093440470934504809346049093470483E590E06AEF7BE20E94DE184B
:206540006093D1017093D2018093D3019093D40183E090E00E94C92C6093DB017093DC01A8
:206560008093DD019093DE0187E090E00E94C92C6093DF017093E0018093E1019093E20108
:206580008BE090E00E94C92C6093E3017093E4018093E5019093E6018FE090E00E94C92C51
:2065A0006093EB017093EC018093ED019093EE0183E190E00E94C92C6093EF017093F001B7
:2065C0008093F1019093F20187E190E00E94C92C6093F3017093F4018093F5019093F6012F
:2065E0008BE190E00E94C92C6093FB017093FC018093FD019093FE018FE190E00E94C92C8F
:206600006093FF0170930002809301029093020283E290E00E94C92C6093030270930402D8
:20662000809305029093060287E290E00E94C92C60934E0C70934F0C8093500C9093510C0B
:206640008FE290E00E94C92C6093520C7093530C8093540C9093550C83E390E00E94C92CAB
:2066600060930702709308028093090290930A0287E390E00E94C92C60930B0270930C0242
:2066800080930D0290930E028BE390E00E94C92C60930F02709310028093110290931202BA
:2066A0008FE390E00E94C92C60931702709318028093190290931A0283E490E00E94C92C5D
:2066C00060931B0270931C0280931D0290931E0287E490E00E94C92C60931F027093200269
:2066E0008093210290932202F999FECF8AE690E092BD81BDF89A80B580939E01F999FECF79
:206700008BE690E092BD81BDF89A80B58093A301F999FECF8CE790E092BD81BDF89A80B5F7
:206720008093A4018CE690E00E94C92C6093A5017093A6018093A7019093A80180E790E087
:206740000E94C92C6093A9017093AA018093AB019093AC0184E790E00E94C92C6093AD01B5
:206760007093AE018093AF019093B001F999FECF88E790E092BD81BDF89A80B58093B10179
:2067800085E890E00E94C92C6093320C7093330C8093340C9093350C89E890E00E94C92CE3
:2067A00060933A0C70933B0C80933C0C90933D0C8DE890E00E94C92C6093420C7093430C80
:2067C0008093440C9093450C81E990E00E94C92C60932E0C70932F0C8093300C9093310C57
:2067E00085E990E00E94C92C6093360C7093370C8093380C9093390C89E990E00E94C92C71
:2068000060933E0C70933F0C8093400C9093410C88EC90E00E94C92C60932801709329015A
:2068200080932A0190932B018CEC90E00E94C92C60932E0170932F0180933001909331015E
:2068400080ED90E00E94C92C6093360170933701809338019093390184ED90E00E94C92C3E
:2068600060933201709333018093340190933501F999FECF88ED90E092BD81BDF89A80B582
:2068800080935701F999FECF89ED90E092BD81BDF89A80B580935C01F999FECF85EF90E041
:2068A00092BD81BDF89A80B580935D018AED90E00E94C92C60935E0170935F01809360016C
:2068C000909361018EED90E00E94C92C6093620170936301809364019093650182EE90E013
:2068E0000E94C92C60936601709367018093680190936901F999FECF86EE90E092BD81BD63
:20690000F89A80B580936A0187EE90E06AEF7BE20E94DE1860932001709321018093220190
:20692000909323018BEE90E06AEF7BE20E94DE186093240170932501809326019093270113
